{
  "address": "0x03cDbE6020084eb013b02B8d8e0A90BE018fb39E",
  "abi": [
    {
      "inputs": [
        {
          "internalType": "address",
          "name": "priceFeedAddress",
          "type": "address"
        }
      ],
      "stateMutability": "nonpayable",
      "type": "constructor"
    },
    {
      "stateMutability": "payable",
      "type": "fallback"
    },
    {
      "inputs": [],
      "name": "fund",
      "outputs": [],
      "stateMutability": "payable",
      "type": "function"
    },
    {
      "inputs": [],
      "name": "priceFeed",
      "outputs": [
        {
          "internalType": "contract AggregatorV3Interface",
          "name": "",
          "type": "address"
        }
      ],
      "stateMutability": "view",
      "type": "function"
    },
    {
      "inputs": [],
      "name": "withdraw",
      "outputs": [],
      "stateMutability": "nonpayable",
      "type": "function"
    },
    {
      "inputs": [
        {
          "internalType": "address payable",
          "name": "_to",
          "type": "address"
        },
        {
          "internalType": "uint256",
          "name": "_amount",
          "type": "uint256"
        }
      ],
      "name": "withdrawToAddress",
      "outputs": [],
      "stateMutability": "nonpayable",
      "type": "function"
    },
    {
      "stateMutability": "payable",
      "type": "receive"
    }
  ],
  "transactionHash": "0x5eeadc93ad11de1fc2cec56c48aa77eb2d3775cfa2a8769cc38cd75c783f6246",
  "args": [
    "0x694AA1769357215DE4FAC081bf1f309aDC325306"
  ],
  "numDeployments": 6,
  "solcInputHash": "73c0a585ffb05b8e3862b6c6ddb947ce",
  "bytecode": "0x60a060405234801561001057600080fd5b50604051610ea0380380610ea0833981810160405281019061003291906100c4565b3373ffffffffffffffffffffffffffffffffffffffff1660808173ffffffffffffffffffffffffffffffffffffffff1660601b81525050806000806101000a81548173ffffffffffffffffffffffffffffffffffffffff021916908373ffffffffffffffffffffffffffffffffffffffff1602179055505061013f565b6000815190506100be81610128565b92915050565b6000602082840312156100da576100d9610123565b5b60006100e8848285016100af565b91505092915050565b60006100fc82610103565b9050919050565b600073ffffffffffffffffffffffffffffffffffffffff82169050919050565b600080fd5b610131816100f1565b811461013c57600080fd5b50565b60805160601c610d3c6101646000396000818161018101526103aa0152610d3c6000f3fe6080604052600436106100435760003560e01c806335bdac341461005c5780633ccfd60b14610085578063741bef1a1461009c578063b60d4288146100c757610052565b36610052576100506100d1565b005b61005a6100d1565b005b34801561006857600080fd5b50610083600480360381019061007e919061064f565b610149565b005b34801561009157600080fd5b5061009a610372565b005b3480156100a857600080fd5b506100b16104e6565b6040516100be9190610823565b60405180910390f35b6100cf6100d1565b005b600061010660008054906101000a900473ffffffffffffffffffffffffffffffffffffffff163461050a90919063ffffffff16565b1015610147576040517f08c379a000000000000000000000000000000000000000000000000000000000815260040161013e9061087e565b60405180910390fd5b565b600073ffffffffffffffffffffffffffffffffffffffff163373ffffffffffffffffffffffffffffffffffffffff1614806101cf57507f000000000000000000000000000000000000000000000000000000000000000073ffffffffffffffffffffffffffffffffffffffff163373ffffffffffffffffffffffffffffffffffffffff16145b61020e576040517f08c379a0000000000000000000000000000000000000000000000000000000008152600401610205906108de565b60405180910390fd5b600073ffffffffffffffffffffffffffffffffffffffff168273ffffffffffffffffffffffffffffffffffffffff16141561027e576040517f08c379a00000000000000000000000000000000000000000000000000000000081526004016102759061085e565b60405180910390fd5b804710156102c1576040517f08c379a00000000000000000000000000000000000000000000000000000000081526004016102b89061089e565b60405180910390fd5b60008273ffffffffffffffffffffffffffffffffffffffff16826040516102e79061080e565b60006040518083038185875af1925050503d8060008114610324576040519150601f19603f3d011682016040523d82523d6000602084013e610329565b606091505b505090508061036d576040517f08c379a00000000000000000000000000000000000000000000000000000000081526004016103649061083e565b60405180910390fd5b505050565b600073ffffffffffffffffffffffffffffffffffffffff163373ffffffffffffffffffffffffffffffffffffffff1614806103f857507f000000000000000000000000000000000000000000000000000000000000000073ffffffffffffffffffffffffffffffffffffffff163373ffffffffffffffffffffffffffffffffffffffff16145b610437576040517f08c379a000000000000000000000000000000000000000000000000000000000815260040161042e906108de565b60405180910390fd5b60003373ffffffffffffffffffffffffffffffffffffffff164760405161045d9061080e565b60006040518083038185875af1925050503d806000811461049a576040519150601f19603f3d011682016040523d82523d6000602084013e61049f565b606091505b50509050806104e3576040517f08c379a00000000000000000000000000000000000000000000000000000000081526004016104da906108be565b60405180910390fd5b50565b60008054906101000a900473ffffffffffffffffffffffffffffffffffffffff1681565b60008061051683610546565b90506000670de0b6b3a7640000858361052f9190610a62565b610539919061091a565b9050809250505092915050565b6000808273ffffffffffffffffffffffffffffffffffffffff1663feaf968c6040518163ffffffff1660e01b815260040160a06040518083038186803b15801561058f57600080fd5b505afa1580156105a3573d6000803e3d6000fd5b505050506040513d601f19601f820116820180604052508101906105c7919061068f565b5050509150506402540be400816105de919061094b565b915050919050565b6000813590506105f581610caa565b92915050565b60008151905061060a81610cc1565b92915050565b60008135905061061f81610cd8565b92915050565b60008151905061063481610cd8565b92915050565b60008151905061064981610cef565b92915050565b6000806040838503121561066657610665610bac565b5b6000610674858286016105e6565b925050602061068585828601610610565b9150509250929050565b600080600080600060a086880312156106ab576106aa610bac565b5b60006106b98882890161063a565b95505060206106ca888289016105fb565b94505060406106db88828901610625565b93505060606106ec88828901610625565b92505060806106fd8882890161063a565b9150509295509295909350565b61071381610b18565b82525050565b6000610726600b83610909565b915061073182610bb1565b602082019050919050565b6000610749600f83610909565b915061075482610bda565b602082019050919050565b600061076c601283610909565b915061077782610c03565b602082019050919050565b600061078f601483610909565b915061079a82610c2c565b602082019050919050565b60006107b2600b83610909565b91506107bd82610c55565b602082019050919050565b60006107d5601383610909565b91506107e082610c7e565b602082019050919050565b60006107f86000836108fe565b915061080382610ca7565b600082019050919050565b6000610819826107eb565b9150819050919050565b6000602082019050610838600083018461070a565b92915050565b6000602082019050818103600083015261085781610719565b9050919050565b600060208201905081810360008301526108778161073c565b9050919050565b600060208201905081810360008301526108978161075f565b9050919050565b600060208201905081810360008301526108b781610782565b9050919050565b600060208201905081810360008301526108d7816107a5565b9050919050565b600060208201905081810360008301526108f7816107c8565b9050919050565b600081905092915050565b600082825260208201905092915050565b600061092582610af8565b915061093083610af8565b9250826109405761093f610b7d565b5b828204905092915050565b600061095682610ace565b915061096183610ace565b9250827f7fffffffffffffffffffffffffffffffffffffffffffffffffffffffffffffff04821160008413600084131616156109a05761099f610b4e565b5b817f800000000000000000000000000000000000000000000000000000000000000005831260008412600084131616156109dd576109dc610b4e565b5b827f80000000000000000000000000000000000000000000000000000000000000000582126000841360008412161615610a1a57610a19610b4e565b5b827f7fffffffffffffffffffffffffffffffffffffffffffffffffffffffffffffff0582126000841260008412161615610a5757610a56610b4e565b5b828202905092915050565b6000610a6d82610af8565b9150610a7883610af8565b9250817fffffffffffffffffffffffffffffffffffffffffffffffffffffffffffffffff0483118215151615610ab157610ab0610b4e565b5b828202905092915050565b6000610ac782610ad8565b9050919050565b6000819050919050565b600073ffffffffffffffffffffffffffffffffffffffff82169050919050565b6000819050919050565b600069ffffffffffffffffffff82169050919050565b6000610b2382610b2a565b9050919050565b6000610b3582610b3c565b9050919050565b6000610b4782610ad8565b9050919050565b7f4e487b7100000000000000000000000000000000000000000000000000000000600052601160045260246000fd5b7f4e487b7100000000000000000000000000000000000000000000000000000000600052601260045260246000fd5b600080fd5b7f43616c6c206661696c6564000000000000000000000000000000000000000000600082015250565b7f496e76616c696420616464726573730000000000000000000000000000000000600082015250565b7f4469646e27742073656e6420656e6f7567680000000000000000000000000000600082015250565b7f496e73756666696369656e742062616c616e6365000000000000000000000000600082015250565b7f63616c6c206661696c6564000000000000000000000000000000000000000000600082015250565b7f53656e646572206973206e6f74206f776e657200000000000000000000000000600082015250565b50565b610cb381610abc565b8114610cbe57600080fd5b50565b610cca81610ace565b8114610cd557600080fd5b50565b610ce181610af8565b8114610cec57600080fd5b50565b610cf881610b02565b8114610d0357600080fd5b5056fea264697066735822122057ac2f6b90b4ef8c638058f3173ab00be2606e76aad7ee6efd381da5db6dce3c64736f6c63430008070033",
  "devdoc": {
    "kind": "dev",
    "methods": {},
    "version": 1
  },
  "userdoc": {
    "kind": "user",
    "methods": {},
    "version": 1
  },
  "storageLayout": {
    "storage": [
      {
        "astId": 62,
        "contract": "contracts/Minatosys.sol:Minatosys",
        "label": "priceFeed",
        "offset": 0,
        "slot": "0",
        "type": "t_contract(AggregatorV3Interface)45"
      }
    ],
    "types": {
      "t_contract(AggregatorV3Interface)45": {
        "encoding": "inplace",
        "label": "contract AggregatorV3Interface",
        "numberOfBytes": "20"
      }
    }
  }
}